{"abi":[{"type":"constructor","inputs":[{"name":"admin","type":"address","internalType":"address"},{"name":"_taskImpl","type":"address","internalType":"address"},{"name":"_agentRegistry","type":"address","internalType":"address"},{"name":"_policy","type":"address","internalType":"address"},{"name":"_treasury","type":"address","internalType":"address"},{"name":"_feeBps","type":"uint256","internalType":"uint256"}],"stateMutability":"nonpayable"},{"type":"receive","stateMutability":"payable"},{"type":"function","name":"DEFAULT_ADMIN_ROLE","inputs":[],"outputs":[{"name":"","type":"bytes32","internalType":"bytes32"}],"stateMutability":"view"},{"type":"function","name":"HUMAN_ROLE","inputs":[],"outputs":[{"name":"","type":"bytes32","internalType":"bytes32"}],"stateMutability":"view"},{"type":"function","name":"MANAGER_ROLE","inputs":[],"outputs":[{"name":"","type":"bytes32","internalType":"bytes32"}],"stateMutability":"view"},{"type":"function","name":"agentRegistry","inputs":[],"outputs":[{"name":"","type":"address","internalType":"contract IMandalaAgentRegistry"}],"stateMutability":"view"},{"type":"function","name":"allTasks","inputs":[],"outputs":[{"name":"","type":"address[]","internalType":"address[]"}],"stateMutability":"view"},{"type":"function","name":"deployTask","inputs":[{"name":"params","type":"tuple","internalType":"struct IMandalaFactory.DeployParams","components":[{"name":"verifier","type":"address","internalType":"address"},{"name":"token","type":"address","internalType":"address"},{"name":"stakeRequired","type":"uint256","internalType":"uint256"},{"name":"deadline","type":"uint256","internalType":"uint256"},{"name":"disputeWindow","type":"uint256","internalType":"uint256"},{"name":"criteriaHash","type":"bytes32","internalType":"bytes32"},{"name":"criteriaURI","type":"string","internalType":"string"},{"name":"humanGateEnabled","type":"bool","internalType":"bool"}]}],"outputs":[{"name":"taskAddress","type":"address","internalType":"address"}],"stateMutability":"payable"},{"type":"function","name":"getRoleAdmin","inputs":[{"name":"role","type":"bytes32","internalType":"bytes32"}],"outputs":[{"name":"","type":"bytes32","internalType":"bytes32"}],"stateMutability":"view"},{"type":"function","name":"grantRole","inputs":[{"name":"role","type":"bytes32","internalType":"bytes32"},{"name":"account","type":"address","internalType":"address"}],"outputs":[],"stateMutability":"nonpayable"},{"type":"function","name":"hasRole","inputs":[{"name":"role","type":"bytes32","internalType":"bytes32"},{"name":"account","type":"address","internalType":"address"}],"outputs":[{"name":"","type":"bool","internalType":"bool"}],"stateMutability":"view"},{"type":"function","name":"policy","inputs":[],"outputs":[{"name":"","type":"address","internalType":"contract IMandalaPolicy"}],"stateMutability":"view"},{"type":"function","name":"protocolFeeBps","inputs":[],"outputs":[{"name":"","type":"uint256","internalType":"uint256"}],"stateMutability":"view"},{"type":"function","name":"renounceRole","inputs":[{"name":"role","type":"bytes32","internalType":"bytes32"},{"name":"callerConfirmation","type":"address","internalType":"address"}],"outputs":[],"stateMutability":"nonpayable"},{"type":"function","name":"revokeRole","inputs":[{"name":"role","type":"bytes32","internalType":"bytes32"},{"name":"account","type":"address","internalType":"address"}],"outputs":[],"stateMutability":"nonpayable"},{"type":"function","name":"setProtocolFee","inputs":[{"name":"feeBps","type":"uint256","internalType":"uint256"}],"outputs":[],"stateMutability":"nonpayable"},{"type":"function","name":"setTreasury","inputs":[{"name":"_treasury","type":"address","internalType":"address"}],"outputs":[],"stateMutability":"nonpayable"},{"type":"function","name":"supportsInterface","inputs":[{"name":"interfaceId","type":"bytes4","internalType":"bytes4"}],"outputs":[{"name":"","type":"bool","internalType":"bool"}],"stateMutability":"view"},{"type":"function","name":"taskCount","inputs":[],"outputs":[{"name":"","type":"uint256","internalType":"uint256"}],"stateMutability":"view"},{"type":"function","name":"taskImplementation","inputs":[],"outputs":[{"name":"","type":"address","internalType":"address"}],"stateMutability":"view"},{"type":"function","name":"tasksByCoordinator","inputs":[{"name":"coordinator","type":"address","internalType":"address"}],"outputs":[{"name":"","type":"address[]","internalType":"address[]"}],"stateMutability":"view"},{"type":"function","name":"treasury","inputs":[],"outputs":[{"name":"","type":"address","internalType":"address"}],"stateMutability":"view"},{"type":"event","name":"ImplementationUpdated","inputs":[{"name":"newImpl","type":"address","indexed":true,"internalType":"address"}],"anonymous":false},{"type":"event","name":"ProtocolFeeUpdated","inputs":[{"name":"newFeeBps","type":"uint256","indexed":false,"internalType":"uint256"}],"anonymous":false},{"type":"event","name":"RoleAdminChanged","inputs":[{"name":"role","type":"bytes32","indexed":true,"internalType":"bytes32"},{"name":"previousAdminRole","type":"bytes32","indexed":true,"internalType":"bytes32"},{"name":"newAdminRole","type":"bytes32","indexed":true,"internalType":"bytes32"}],"anonymous":false},{"type":"event","name":"RoleGranted","inputs":[{"name":"role","type":"bytes32","indexed":true,"internalType":"bytes32"},{"name":"account","type":"address","indexed":true,"internalType":"address"},{"name":"sender","type":"address","indexed":true,"internalType":"address"}],"anonymous":false},{"type":"event","name":"RoleRevoked","inputs":[{"name":"role","type":"bytes32","indexed":true,"internalType":"bytes32"},{"name":"account","type":"address","indexed":true,"internalType":"address"},{"name":"sender","type":"address","indexed":true,"internalType":"address"}],"anonymous":false},{"type":"event","name":"TaskDeployed","inputs":[{"name":"taskAddress","type":"address","indexed":true,"internalType":"address"},{"name":"coordinator","type":"address","indexed":true,"internalType":"address"},{"name":"token","type":"address","indexed":false,"internalType":"address"},{"name":"reward","type":"uint256","indexed":false,"internalType":"uint256"},{"name":"deadline","type":"uint256","indexed":false,"internalType":"uint256"}],"anonymous":false},{"type":"event","name":"TreasuryUpdated","inputs":[{"name":"newTreasury","type":"address","indexed":true,"internalType":"address"}],"anonymous":false},{"type":"error","name":"AccessControlBadConfirmation","inputs":[]},{"type":"error","name":"AccessControlUnauthorizedAccount","inputs":[{"name":"account","type":"address","internalType":"address"},{"name":"neededRole","type":"bytes32","internalType":"bytes32"}]},{"type":"error","name":"AgentNotRegistered","inputs":[]},{"type":"error","name":"AgentSuspended","inputs":[]},{"type":"error","name":"FailedDeployment","inputs":[]},{"type":"error","name":"InsufficientBalance","inputs":[{"name":"balance","type":"uint256","internalType":"uint256"},{"name":"needed","type":"uint256","internalType":"uint256"}]},{"type":"error","name":"InsufficientReward","inputs":[]},{"type":"error","name":"InvalidThreshold","inputs":[]},{"type":"error","name":"PolicyPaused","inputs":[]},{"type":"error","name":"SafeERC20FailedOperation","inputs":[{"name":"token","type":"address","internalType":"address"}]},{"type":"error","name":"TaskExpired","inputs":[]},{"type":"error","name":"TransferFailed","inputs":[]},{"type":"error","name":"ZeroAddress","inputs":[]}],"bytecode":{"object":"0x60e034620001af57601f6200181d38819003918201601f191683019291906001600160401b03841183851017620001b3578160c09284926040968752833981010312620001af576200005181620001c7565b6200005f60208301620001c7565b916200006d848201620001c7565b906200007c60608201620001c7565b9060a06200008d60808301620001c7565b910151946001600160a01b0393858516158015620001a4575b62000188578416918215801562000199575b6200018857841694851562000188576103e88711620001775780620000e1620000f492620001dc565b50620000ed816200024c565b50620002ec565b5060805260a0521660c052600180546001600160a01b0319169190911790556002555161145690816200038782396080518181816103530152610d74015260a051818181610254015281816102ad015281816104a101528181610697015281816106e301526110d7015260c0518181816101fc015281816104c8015261111b0152f35b875163aabd5a0960e01b8152600490fd5b875163d92e233d60e01b8152600490fd5b5084841615620000b8565b5084821615620000a6565b5f80fd5b634e487b7160e01b5f52604160045260245ffd5b51906001600160a01b0382168203620001af57565b6001600160a01b03165f8181525f80516020620017fd833981519152602052604090205460ff1662000247575f8181525f80516020620017fd83398151915260205260408120805460ff191660011790553391905f80516020620017dd8339815191528180a4600190565b505f90565b6001600160a01b03165f8181527fae3085c8f973ed9a1023c8ce5aa371f3f1b339465f735caab7581f6a81e0ad6760205260409020547f5b4fb3b705b172d11b8c2772c1720020f0174a425e64abadd2a402a139f88ae4919060ff16620002e657815f525f60205260405f20815f5260205260405f20600160ff1982541617905533915f80516020620017dd8339815191525f80a4600190565b50505f90565b6001600160a01b03165f8181527fe84508f2c7fa9c351146748b3025cb78b45df37d868e48c6a75102fecdeee64560205260409020547f241ecf16d79d0f8dbfb92cbc07fe17840425976cf0667f022fe9877caa831b08919060ff16620002e657815f525f60205260405f20815f5260205260405f20600160ff1982541617905533915f80516020620017dd8339815191525f80a460019056fe608080604052600436101561001c575b50361561001a575f80fd5b005b5f905f3560e01c90816301ffc9a71461114a575080630505c8c9146111065780630d1cfcae146110c2578063248a9ca3146110965780632f2ff15d1461105a5780632f86582014610fe157806333d6f66214610fa757806335659fb814610f8a57806336568abe14610f43578063387bcd7714610eb257806361d027b314610e8a578063787dce3d14610e2257806391d1485414610dda578063a217fddf14610dc0578063b6cb58a514610da3578063bc46265f14610d5f578063d547741f14610d23578063e9c23fc2146101b9578063ec87621c1461017e5763f0f442600361000f573461017b57602036600319011261017b576101196111b3565b610121611298565b6001600160a01b0316801561016957600180546001600160a01b031916821790557f7dae230f18360d76a040c81f050aa14eb9d6dc7901b20fc5d855e2a20fe814d18280a280f35b60405163d92e233d60e01b8152600490fd5b80fd5b503461017b578060031936011261017b5760206040517f241ecf16d79d0f8dbfb92cbc07fe17840425976cf0667f022fe9877caa831b088152f35b5060031960203682011261088e5767ffffffffffffffff6004351161088e57610100906004353603011261088e576040516358c3de9360e11b81526020816004817f00000000000000000000000000000000000000000000000000000000000000006001600160a01b03165afa90811561086a575f91610d04575b50610cf25760405163c3c5a54760e01b81523360048201526020816024817f00000000000000000000000000000000000000000000000000000000000000006001600160a01b03165afa90811561086a575f91610cd3575b5015610cc157604051631197074d60e11b81523360048201526020816024817f00000000000000000000000000000000000000000000000000000000000000006001600160a01b03165afa90811561086a575f91610c92575b50610c80576001600160a01b0361030060043560240161125b565b16610add57345b8015610acb5742606460043501351115610ab9576002548082029082820403610aa5576127106103399104809261126f565b90806109db575b506e5af43d82803e903d91602b57fd5bf37f0000000000000000000000000000000000000000000000000000000000000000763d602d80600a3d3981f3363d3d373d3d3d363d7300000062ffffff8260881c16175f5260781b1760205260018060a01b03603760095ff0169081156109c9576001600160a01b036103c860043560240161125b565b166109c357805b6001600160a01b036103e560043560240161125b565b16610892575b6103f960043560040161125b565b9061040860246004350161125b565b60221960043536030160c46004350135121561088e5767ffffffffffffffff6004803560c48101350101351161088e576004803560c48101350190810135360360249091011361088e5760e4600435013590811515820361088e57604051938461018081011067ffffffffffffffff6101808701111761082057610180850160409081523386526001600160a01b0391821660208701527f00000000000000000000000000000000000000000000000000000000000000008216908601527f00000000000000000000000000000000000000000000000000000000000000008116606086015216608084015260a083018490526044600480359182013560c0860152606482013560e0860152608482013561010086015260a482013561012086015261053b9160c481013501013561127c565b6105486040519182611221565b6004803560c481013501908101358083523691016024011161088e576004803560c481013501908101359060240160208301375f6004803560c48101350101358201602001526101408401521515610160830152833b1561088e5760408051636f3c566360e11b815260206004820181905284516001600160a01b03908116602484015290850151811660448301529184015182166064820152606084015182166084820152608084015190911660a482015260a083015160c482015260c083015160e482015260e083015161010482015261010083015161012482015261012083015161014482015261014083015161018061016483015280516101a483018190529193849290915f5b8281106108755750505f93918380926101606101c4938885848601015201511515610184830152601f80199101168101030191875af1801561086a57610857575b507f00000000000000000000000000000000000000000000000000000000000000006001600160a01b03163b15610848576040516303a6820b60e11b81526004810183905283908181602481837f00000000000000000000000000000000000000000000000000000000000000006001600160a01b03165af1801561084c57610834575b50506003549268010000000000000000938481101561082057600181018060035581101561080c5760035f527fc2575a0e9e593c00f959f8c92f12db2869c3395a3b0502d05e2516446f71f85b0180546001600160a01b0319908116851790915533825260046020526040909120805494851015610820576001850180825585101561080c5760209484915f52855f2001918254161790556107be60246004350161125b565b906040519160018060a01b0316825283820152606460043501356040820152817fbaf4d06297aa6fc1f916148ac980ca4f2e77c9bade44789888563dd6421946a960603393a3604051908152f35b634e487b7160e01b5f52603260045260245ffd5b634e487b7160e01b5f52604160045260245ffd5b61083d9061120d565b61084857825f610718565b8280fd5b6040513d84823e3d90fd5b61086291935061120d565b5f915f610694565b6040513d5f823e3d90fd5b60208282018101516101c4898401015287955001610653565b5f80fd5b6001600160a01b036108a860043560240161125b565b1660405163095ea7b360e01b5f52846004528360245260205f60448180865af160015f51148116156109b6575b81604052156108e6575b50506103eb565b63095ea7b360e01b5f52846004525f60245260205f60448180865af160015f5114811615610997575b816040521561098357506040519063095ea7b360e01b5f52846004528360245260205f60448180855af160015f5114811615610964575b826040526108df575b635274afe760e01b8252600482015260249150fd5b600181151661097a57813b15153d151616610946565b823d5f823e3d90fd5b602491635274afe760e01b82526004820152fd5b60018115166109ad57823b15153d15161661090f565b503d5f823e3d90fd5b823b15153d1516166108d5565b5f6103cf565b60405163b06ebf3d60e01b8152600490fd5b6109e960246004350161125b565b6001546001600160a01b03908116911680610a5257505f80809381935af13d15610a4d573d610a178161127c565b90610a256040519283611221565b81525f60203d92013e5b15610a3b575b5f610340565b6040516312171d8360e31b8152600490fd5b610a2f565b90916040519263a9059cbb60e01b5f5260045260245260205f60448180855af160015f5114811615610a8f575b826040521561094f575050610a35565b600181151661097a57813b15153d151616610a7f565b634e487b7160e01b5f52601160045260245ffd5b60405163c034310360e01b8152600490fd5b604051636bbdb6db60e11b8152600490fd5b6001600160a01b03610af360043560240161125b565b6040516370a0823160e01b81523060048201529116602082602481845afa91821561086a575f92610c4c575b50604051636eb1769f60e11b8152336004820152306024820152602081604481855afa90811561086a575f91610c1a575b508015610acb57604051906323b872dd60e01b5f52336004523060245260445260205f60648180865af160015f5114811615610c04575b816040525f606052156109835750906020602492604051938480926370a0823160e01b82523060048301525afa801561086a575f90610bd0575b610bcb925061126f565b610307565b506020823d602011610bfc575b81610bea60209383611221565b8101031261088e57610bcb9151610bc1565b3d9150610bdd565b60018115166109ad57823b15153d151616610b87565b90506020813d602011610c44575b81610c3560209383611221565b8101031261088e57515f610b50565b3d9150610c28565b9091506020813d602011610c78575b81610c6860209383611221565b8101031261088e5751905f610b1f565b3d9150610c5b565b60405163be06741760e01b8152600490fd5b610cb4915060203d602011610cba575b610cac8183611221565b810190611243565b5f6102e5565b503d610ca2565b6040516383bcfb4760e01b8152600490fd5b610cec915060203d602011610cba57610cac8183611221565b5f61028c565b6040516396be1a1b60e01b8152600490fd5b610d1d915060203d602011610cba57610cac8183611221565b5f610234565b3461088e57604036600319011261088e5761001a600435610d4261119d565b90805f525f602052610d5a600160405f200154611311565b6113ae565b3461088e575f36600319011261088e576040517f00000000000000000000000000000000000000000000000000000000000000006001600160a01b03168152602090f35b3461088e575f36600319011261088e576020600354604051908152f35b3461088e575f36600319011261088e5760206040515f8152f35b3461088e57604036600319011261088e57610df361119d565b6004355f525f60205260405f209060018060a01b03165f52602052602060ff60405f2054166040519015158152f35b3461088e57602036600319011261088e57600435610e3e611298565b6103e88111610e78576020817fd10d75876659a287a59a6ccfa2e3fff42f84d94b542837acd30bc184d562de4092600255604051908152a1005b60405163aabd5a0960e01b8152600490fd5b3461088e575f36600319011261088e576001546040516001600160a01b039091168152602090f35b3461088e575f36600319011261088e57604051806003549182815260208091019260035f527fc2575a0e9e593c00f959f8c92f12db2869c3395a3b0502d05e2516446f71f85b915f905b828210610f2357610f1f85610f1381890382611221565b604051918291826111c9565b0390f35b83546001600160a01b031686529485019460019384019390910190610efc565b3461088e57604036600319011261088e57610f5c61119d565b336001600160a01b03821603610f785761001a906004356113ae565b60405163334bd91960e11b8152600490fd5b3461088e575f36600319011261088e576020600254604051908152f35b3461088e575f36600319011261088e5760206040517f5b4fb3b705b172d11b8c2772c1720020f0174a425e64abadd2a402a139f88ae48152f35b3461088e5760208060031936011261088e576001600160a01b03806110046111b3565b165f52600460205260405f20916040518092602085549283815201945f5260205f20925f915b83831061104157610f1f86610f13818a0382611221565b845481168752958101956001948501949092019161102a565b3461088e57604036600319011261088e5761001a60043561107961119d565b90805f525f602052611091600160405f200154611311565b611332565b3461088e57602036600319011261088e576004355f525f6020526020600160405f200154604051908152f35b3461088e575f36600319011261088e576040517f00000000000000000000000000000000000000000000000000000000000000006001600160a01b03168152602090f35b3461088e575f36600319011261088e576040517f00000000000000000000000000000000000000000000000000000000000000006001600160a01b03168152602090f35b3461088e57602036600319011261088e576004359063ffffffff60e01b821680920361088e57602091637965db0b60e01b811490811561118c575b5015158152f35b6301ffc9a760e01b14905083611185565b602435906001600160a01b038216820361088e57565b600435906001600160a01b038216820361088e57565b60209060206040818301928281528551809452019301915f5b8281106111f0575050505090565b83516001600160a01b0316855293810193928101926001016111e2565b67ffffffffffffffff811161082057604052565b90601f8019910116810190811067ffffffffffffffff82111761082057604052565b9081602091031261088e5751801515810361088e5790565b356001600160a01b038116810361088e5790565b91908203918211610aa557565b67ffffffffffffffff811161082057601f01601f191660200190565b335f9081527fae3085c8f973ed9a1023c8ce5aa371f3f1b339465f735caab7581f6a81e0ad6760205260409020547f5b4fb3b705b172d11b8c2772c1720020f0174a425e64abadd2a402a139f88ae49060ff16156112f35750565b6044906040519063e2517d3f60e01b82523360048301526024820152fd5b805f525f60205260405f20335f5260205260ff60405f205416156112f35750565b90815f525f60205260405f209060018060a01b031690815f5260205260ff60405f205416155f146113a857815f525f60205260405f20815f5260205260405f20600160ff1982541617905533917f2f8788117e7eff1d82e926ec794901d17c78024a50270940304540a733656f0d5f80a4600190565b50505f90565b90815f525f60205260405f209060018060a01b031690815f5260205260ff60405f2054165f146113a857815f525f60205260405f20815f5260205260405f2060ff19815416905533917ff6391f5c32d9c69d2a47ea670b442974b53935d1edc7fd64eb21e047a839171b5f80a460019056fea264697066735822122039cc408c70e3779782c927949090c7f08b16f02f31636932990a0488489e98be64736f6c634300081800332f8788117e7eff1d82e926ec794901d17c78024a50270940304540a733656f0dad3228b676f7d3cd4284a5443f17f1962b36e491b30a40b2405849e597ba5fb5","linkReferences":{}},"methodIdentifiers":{"DEFAULT_ADMIN_ROLE()":"a217fddf","HUMAN_ROLE()":"33d6f662","MANAGER_ROLE()":"ec87621c","agentRegistry()":"0d1cfcae","allTasks()":"387bcd77","deployTask((address,address,uint256,uint256,uint256,bytes32,string,bool))":"e9c23fc2","getRoleAdmin(bytes32)":"248a9ca3","grantRole(bytes32,address)":"2f2ff15d","hasRole(bytes32,address)":"91d14854","policy()":"0505c8c9","protocolFeeBps()":"35659fb8","renounceRole(bytes32,address)":"36568abe","revokeRole(bytes32,address)":"d547741f","setProtocolFee(uint256)":"787dce3d","setTreasury(address)":"f0f44260","supportsInterface(bytes4)":"01ffc9a7","taskCount()":"b6cb58a5","taskImplementation()":"bc46265f","tasksByCoordinator(address)":"2f865820","treasury()":"61d027b3"},"id":40}