{"abi":[{"type":"constructor","inputs":[{"name":"admin","type":"address","internalType":"address"},{"name":"_humanGateThreshold","type":"uint256","internalType":"uint256"},{"name":"_minStake","type":"uint256","internalType":"uint256"}],"stateMutability":"nonpayable"},{"type":"function","name":"DEFAULT_ADMIN_ROLE","inputs":[],"outputs":[{"name":"","type":"bytes32","internalType":"bytes32"}],"stateMutability":"view"},{"type":"function","name":"HUMAN_ROLE","inputs":[],"outputs":[{"name":"","type":"bytes32","internalType":"bytes32"}],"stateMutability":"view"},{"type":"function","name":"MANAGER_ROLE","inputs":[],"outputs":[{"name":"","type":"bytes32","internalType":"bytes32"}],"stateMutability":"view"},{"type":"function","name":"addHuman","inputs":[{"name":"human","type":"address","internalType":"address"}],"outputs":[],"stateMutability":"nonpayable"},{"type":"function","name":"blacklist","inputs":[{"name":"agent","type":"address","internalType":"address"}],"outputs":[],"stateMutability":"nonpayable"},{"type":"function","name":"getRoleAdmin","inputs":[{"name":"role","type":"bytes32","internalType":"bytes32"}],"outputs":[{"name":"","type":"bytes32","internalType":"bytes32"}],"stateMutability":"view"},{"type":"function","name":"grantRole","inputs":[{"name":"role","type":"bytes32","internalType":"bytes32"},{"name":"account","type":"address","internalType":"address"}],"outputs":[],"stateMutability":"nonpayable"},{"type":"function","name":"hasRole","inputs":[{"name":"role","type":"bytes32","internalType":"bytes32"},{"name":"account","type":"address","internalType":"address"}],"outputs":[{"name":"","type":"bool","internalType":"bool"}],"stateMutability":"view"},{"type":"function","name":"humanGateThreshold","inputs":[],"outputs":[{"name":"","type":"uint256","internalType":"uint256"}],"stateMutability":"view"},{"type":"function","name":"isBlacklisted","inputs":[{"name":"agent","type":"address","internalType":"address"}],"outputs":[{"name":"","type":"bool","internalType":"bool"}],"stateMutability":"view"},{"type":"function","name":"isHuman","inputs":[{"name":"account","type":"address","internalType":"address"}],"outputs":[{"name":"","type":"bool","internalType":"bool"}],"stateMutability":"view"},{"type":"function","name":"isPaused","inputs":[],"outputs":[{"name":"","type":"bool","internalType":"bool"}],"stateMutability":"view"},{"type":"function","name":"minStakeRequired","inputs":[],"outputs":[{"name":"","type":"uint256","internalType":"uint256"}],"stateMutability":"view"},{"type":"function","name":"pause","inputs":[],"outputs":[],"stateMutability":"nonpayable"},{"type":"function","name":"paused","inputs":[],"outputs":[{"name":"","type":"bool","internalType":"bool"}],"stateMutability":"view"},{"type":"function","name":"removeHuman","inputs":[{"name":"human","type":"address","internalType":"address"}],"outputs":[],"stateMutability":"nonpayable"},{"type":"function","name":"renounceRole","inputs":[{"name":"role","type":"bytes32","internalType":"bytes32"},{"name":"callerConfirmation","type":"address","internalType":"address"}],"outputs":[],"stateMutability":"nonpayable"},{"type":"function","name":"requiresHumanGate","inputs":[{"name":"value","type":"uint256","internalType":"uint256"}],"outputs":[{"name":"","type":"bool","internalType":"bool"}],"stateMutability":"view"},{"type":"function","name":"revokeRole","inputs":[{"name":"role","type":"bytes32","internalType":"bytes32"},{"name":"account","type":"address","internalType":"address"}],"outputs":[],"stateMutability":"nonpayable"},{"type":"function","name":"setHumanGateThreshold","inputs":[{"name":"threshold","type":"uint256","internalType":"uint256"}],"outputs":[],"stateMutability":"nonpayable"},{"type":"function","name":"setMinStake","inputs":[{"name":"minStake","type":"uint256","internalType":"uint256"}],"outputs":[],"stateMutability":"nonpayable"},{"type":"function","name":"supportsInterface","inputs":[{"name":"interfaceId","type":"bytes4","internalType":"bytes4"}],"outputs":[{"name":"","type":"bool","internalType":"bool"}],"stateMutability":"view"},{"type":"function","name":"unpause","inputs":[],"outputs":[],"stateMutability":"nonpayable"},{"type":"function","name":"whitelist","inputs":[{"name":"agent","type":"address","internalType":"address"}],"outputs":[],"stateMutability":"nonpayable"},{"type":"event","name":"AgentBlacklisted","inputs":[{"name":"agent","type":"address","indexed":true,"internalType":"address"}],"anonymous":false},{"type":"event","name":"AgentWhitelisted","inputs":[{"name":"agent","type":"address","indexed":true,"internalType":"address"}],"anonymous":false},{"type":"event","name":"HumanAdded","inputs":[{"name":"human","type":"address","indexed":true,"internalType":"address"}],"anonymous":false},{"type":"event","name":"HumanGateThresholdUpdated","inputs":[{"name":"newThreshold","type":"uint256","indexed":false,"internalType":"uint256"}],"anonymous":false},{"type":"event","name":"HumanRemoved","inputs":[{"name":"human","type":"address","indexed":true,"internalType":"address"}],"anonymous":false},{"type":"event","name":"MinStakeUpdated","inputs":[{"name":"newMinStake","type":"uint256","indexed":false,"internalType":"uint256"}],"anonymous":false},{"type":"event","name":"Paused","inputs":[{"name":"account","type":"address","indexed":false,"internalType":"address"}],"anonymous":false},{"type":"event","name":"ProtocolPaused","inputs":[{"name":"by","type":"address","indexed":true,"internalType":"address"}],"anonymous":false},{"type":"event","name":"ProtocolResumed","inputs":[{"name":"by","type":"address","indexed":true,"internalType":"address"}],"anonymous":false},{"type":"event","name":"RoleAdminChanged","inputs":[{"name":"role","type":"bytes32","indexed":true,"internalType":"bytes32"},{"name":"previousAdminRole","type":"bytes32","indexed":true,"internalType":"bytes32"},{"name":"newAdminRole","type":"bytes32","indexed":true,"internalType":"bytes32"}],"anonymous":false},{"type":"event","name":"RoleGranted","inputs":[{"name":"role","type":"bytes32","indexed":true,"internalType":"bytes32"},{"name":"account","type":"address","indexed":true,"internalType":"address"},{"name":"sender","type":"address","indexed":true,"internalType":"address"}],"anonymous":false},{"type":"event","name":"RoleRevoked","inputs":[{"name":"role","type":"bytes32","indexed":true,"internalType":"bytes32"},{"name":"account","type":"address","indexed":true,"internalType":"address"},{"name":"sender","type":"address","indexed":true,"internalType":"address"}],"anonymous":false},{"type":"event","name":"Unpaused","inputs":[{"name":"account","type":"address","indexed":false,"internalType":"address"}],"anonymous":false},{"type":"error","name":"AccessControlBadConfirmation","inputs":[]},{"type":"error","name":"AccessControlUnauthorizedAccount","inputs":[{"name":"account","type":"address","internalType":"address"},{"name":"neededRole","type":"bytes32","internalType":"bytes32"}]},{"type":"error","name":"EnforcedPause","inputs":[]},{"type":"error","name":"ExpectedPause","inputs":[]},{"type":"error","name":"ZeroAddress","inputs":[]}],"bytecode":{"object":"0x6080346100a857601f610dc938819003918201601f19168301916001600160401b038311848410176100ac578084926060946040528339810103126100a85780516001600160a01b03811691908281036100a8576040602083015192015192156100965780610070610080926100c0565b5061007a8161012c565b506101ca565b50600255600355604051610b2690816102638239f35b60405163d92e233d60e01b8152600490fd5b5f80fd5b634e487b7160e01b5f52604160045260245ffd5b6001600160a01b03165f8181525f80516020610da9833981519152602052604090205460ff16610127575f8181525f80516020610da983398151915260205260408120805460ff191660011790553391905f80516020610d898339815191528180a4600190565b505f90565b6001600160a01b03165f8181527fae3085c8f973ed9a1023c8ce5aa371f3f1b339465f735caab7581f6a81e0ad6760205260409020547f5b4fb3b705b172d11b8c2772c1720020f0174a425e64abadd2a402a139f88ae4919060ff166101c457815f525f60205260405f20815f5260205260405f20600160ff1982541617905533915f80516020610d898339815191525f80a4600190565b50505f90565b6001600160a01b03165f8181527fe84508f2c7fa9c351146748b3025cb78b45df37d868e48c6a75102fecdeee64560205260409020547f241ecf16d79d0f8dbfb92cbc07fe17840425976cf0667f022fe9877caa831b08919060ff166101c457815f525f60205260405f20815f5260205260405f20600160ff1982541617905533915f80516020610d898339815191525f80a460019056fe6080604081815260049182361015610015575f80fd5b5f3560e01c90816301ffc9a71461075957508063248a9ca3146107305780632ab6e40e146106d65780632f2ff15d146106ae57806333d6f6621461068757806336568abe146106435780633f4ba83a146105b7578063502f6826146105995780635c857c9b146105775780635c975abb146102da5780638456cb59146104e95780638c80fd901461044c57806391ab473a146103d957806391d14854146103965780639b19251a14610335578063a217fddf1461031b578063a937ff25146102fd578063b187bd26146102da578063bc2ba82a1461028d578063d547741f14610252578063ec87621c14610218578063f72c436f146101c8578063f9f92be4146101645763fe575a8714610127575f80fd5b34610160576020366003190112610160576020916001600160a01b0361014b6107ab565b165f52825260ff815f20541690519015158152f35b5f80fd5b50346101605760203660031901126101605761017e6107ab565b61018661082d565b60018060a01b031691825f526020525f20600160ff198254161790557f68399210862954b479d428b72735544fcc7a5f2ceea861f821c32e39cdaa6d705f80a2005b5034610160576020366003190112610160576020906101e56107ab565b5f80516020610ad18339815191525f525f8352815f209060018060a01b03165f52825260ff815f20541690519015158152f35b5034610160575f36600319011261016057602090517f241ecf16d79d0f8dbfb92cbc07fe17840425976cf0667f022fe9877caa831b088152f35b503461016057806003193601126101605761028b913561028660016102756107c1565b93835f525f6020525f200154610893565b610950565b005b509034610160576020366003190112610160577f41045c944b80635d19baa16485cd6b31768b2c5990d6845944c543b56d4228c09160209135906102cf61082d565b8160025551908152a1005b5034610160575f3660031901126101605760209060ff6001541690519015158152f35b5034610160575f366003190112610160576020906002549051908152f35b5034610160575f36600319011261016057602090515f8152f35b50346101605760203660031901126101605761034f6107ab565b61035761082d565b60018060a01b031691825f526020525f2060ff1981541690557fd39a381f419f0fc53e110f17f90095585db0034586dbf907597ac38780af30dd5f80a2005b50346101605780600319360112610160576020916103b26107c1565b90355f525f8352815f209060018060a01b03165f52825260ff815f20541690519015158152f35b509034610160576020366003190112610160576103f46107ab565b906103fd6107d7565b6001600160a01b03821692831561043f5783610418846109c2565b507f27a3da8c8f4dfa7c6319fb3fe82b91f5045f757d949d9aaf01899d7c7642a7f15f80a2005b5163d92e233d60e01b8152fd5b5034610160576020366003190112610160578135917f241ecf16d79d0f8dbfb92cbc07fe17840425976cf0667f022fe9877caa831b08805f525f602052825f20335f5260205260ff835f205416156104ce577f47ab46f2c8d4258304a2f5551c1cbdb6981be49631365d1ba7191288a73f39ef602085858160035551908152a1005b604492519163e2517d3f60e01b835233908301526024820152fd5b5034610160575f3660031901126101605761050261082d565b6001549160ff8316610569577f62e78cea01bee320cd4e420270b5ea74000d11b0c9f74754ebdbfc544b05a25860208360018660ff19161760015551338152a1337f3fb8cabbd30f03312e3221b5b1c7ce132ca5d72cf36143a1d6d33b11ad4eba245f80a2005b905163d93c066560e01b8152fd5b5034610160576020366003190112610160576002549051913510158152602090f35b5034610160575f366003190112610160576020906003549051908152f35b5034610160575f366003190112610160576105d061082d565b6001549160ff831615610635577f5db9ee0a495bf2e6ff9c91a7834c1ba4fdd244a5e8aa4e537bd38aeae4b073aa6020838560ff191660015551338152a1337f16517eb37551fc5d43fa875f458bfef09e4b707ef76b2ef0ae61a6637e8d212a5f80a2005b9051638dfc202b60e01b8152fd5b503461016057806003193601126101605761065c6107c1565b90336001600160a01b03831603610678575061028b9135610950565b5163334bd91960e11b81529050fd5b5034610160575f36600319011261016057602090515f80516020610ad18339815191528152f35b503461016057806003193601126101605761028b91356106d160016102756107c1565b610a5a565b34610160576020366003190112610160576106ef6107ab565b6106f76107d7565b610700816108b4565b506001600160a01b03167f1ea9602e9b031be4c3add78868f37368d3cae13ec5b0fd9c666da53667e486295f80a2005b503461016057602036600319011261016057602091355f525f82526001815f2001549051908152f35b833461016057602036600319011261016057359063ffffffff60e01b821680920361016057602091637965db0b60e01b811490811561079a575b5015158152f35b6301ffc9a760e01b14905083610793565b600435906001600160a01b038216820361016057565b602435906001600160a01b038216820361016057565b335f9081527fad3228b676f7d3cd4284a5443f17f1962b36e491b30a40b2405849e597ba5fb5602052604090205460ff161561080f57565b60405163e2517d3f60e01b81523360048201525f6024820152604490fd5b335f9081527fae3085c8f973ed9a1023c8ce5aa371f3f1b339465f735caab7581f6a81e0ad6760205260409020545f80516020610ad18339815191529060ff16156108755750565b6044906040519063e2517d3f60e01b82523360048301526024820152fd5b805f525f60205260405f20335f5260205260ff60405f205416156108755750565b6001600160a01b03165f8181527fae3085c8f973ed9a1023c8ce5aa371f3f1b339465f735caab7581f6a81e0ad6760205260409020545f80516020610ad1833981519152919060ff161561094a57815f525f60205260405f20815f5260205260405f2060ff19815416905533917ff6391f5c32d9c69d2a47ea670b442974b53935d1edc7fd64eb21e047a839171b5f80a4600190565b50505f90565b90815f525f60205260405f209060018060a01b031690815f5260205260ff60405f2054165f1461094a57815f525f60205260405f20815f5260205260405f2060ff19815416905533917ff6391f5c32d9c69d2a47ea670b442974b53935d1edc7fd64eb21e047a839171b5f80a4600190565b6001600160a01b03165f8181527fae3085c8f973ed9a1023c8ce5aa371f3f1b339465f735caab7581f6a81e0ad6760205260409020545f80516020610ad1833981519152919060ff1661094a57815f525f60205260405f20815f5260205260405f20600160ff1982541617905533917f2f8788117e7eff1d82e926ec794901d17c78024a50270940304540a733656f0d5f80a4600190565b90815f525f60205260405f209060018060a01b031690815f5260205260ff60405f205416155f1461094a57815f525f60205260405f20815f5260205260405f20600160ff1982541617905533917f2f8788117e7eff1d82e926ec794901d17c78024a50270940304540a733656f0d5f80a460019056fe5b4fb3b705b172d11b8c2772c1720020f0174a425e64abadd2a402a139f88ae4a264697066735822122098d8d450d804d1040c28bd02cb4e1403b203649856c98b82a5fe03559e3b669764736f6c634300081800332f8788117e7eff1d82e926ec794901d17c78024a50270940304540a733656f0dad3228b676f7d3cd4284a5443f17f1962b36e491b30a40b2405849e597ba5fb5","linkReferences":{}},"methodIdentifiers":{"DEFAULT_ADMIN_ROLE()":"a217fddf","HUMAN_ROLE()":"33d6f662","MANAGER_ROLE()":"ec87621c","addHuman(address)":"91ab473a","blacklist(address)":"f9f92be4","getRoleAdmin(bytes32)":"248a9ca3","grantRole(bytes32,address)":"2f2ff15d","hasRole(bytes32,address)":"91d14854","humanGateThreshold()":"a937ff25","isBlacklisted(address)":"fe575a87","isHuman(address)":"f72c436f","isPaused()":"b187bd26","minStakeRequired()":"502f6826","pause()":"8456cb59","paused()":"5c975abb","removeHuman(address)":"2ab6e40e","renounceRole(bytes32,address)":"36568abe","requiresHumanGate(uint256)":"5c857c9b","revokeRole(bytes32,address)":"d547741f","setHumanGateThreshold(uint256)":"bc2ba82a","setMinStake(uint256)":"8c80fd90","supportsInterface(bytes4)":"01ffc9a7","unpause()":"3f4ba83a","whitelist(address)":"9b19251a"},"id":41}