{"abi":[{"type":"receive","stateMutability":"payable"},{"type":"function","name":"agentRegistry","inputs":[],"outputs":[{"name":"","type":"address","internalType":"contract IMandalaAgentRegistry"}],"stateMutability":"view"},{"type":"function","name":"cancel","inputs":[],"outputs":[],"stateMutability":"nonpayable"},{"type":"function","name":"disputant","inputs":[],"outputs":[{"name":"","type":"address","internalType":"address"}],"stateMutability":"view"},{"type":"function","name":"dispute","inputs":[{"name":"against","type":"address","internalType":"address"},{"name":"reason","type":"string","internalType":"string"}],"outputs":[],"stateMutability":"nonpayable"},{"type":"function","name":"disputeReason","inputs":[],"outputs":[{"name":"","type":"string","internalType":"string"}],"stateMutability":"view"},{"type":"function","name":"disputeTimeRemaining","inputs":[],"outputs":[{"name":"","type":"uint256","internalType":"uint256"}],"stateMutability":"view"},{"type":"function","name":"disputedAgainst","inputs":[],"outputs":[{"name":"","type":"address","internalType":"address"}],"stateMutability":"view"},{"type":"function","name":"finalize","inputs":[],"outputs":[],"stateMutability":"nonpayable"},{"type":"function","name":"getConfig","inputs":[],"outputs":[{"name":"","type":"tuple","internalType":"struct TaskLib.TaskConfig","components":[{"name":"coordinator","type":"address","internalType":"address"},{"name":"verifier","type":"address","internalType":"address"},{"name":"token","type":"address","internalType":"address"},{"name":"reward","type":"uint256","internalType":"uint256"},{"name":"stakeRequired","type":"uint256","internalType":"uint256"},{"name":"deadline","type":"uint256","internalType":"uint256"},{"name":"disputeWindow","type":"uint256","internalType":"uint256"},{"name":"criteriaHash","type":"bytes32","internalType":"bytes32"},{"name":"criteriaURI","type":"string","internalType":"string"},{"name":"humanGateEnabled","type":"bool","internalType":"bool"},{"name":"status","type":"uint8","internalType":"enum TaskLib.TaskStatus"}]}],"stateMutability":"view"},{"type":"function","name":"getSubmission","inputs":[{"name":"agent","type":"address","internalType":"address"}],"outputs":[{"name":"","type":"tuple","internalType":"struct TaskLib.Submission","components":[{"name":"agent","type":"address","internalType":"address"},{"name":"proofHash","type":"bytes32","internalType":"bytes32"},{"name":"evidenceURI","type":"string","internalType":"string"},{"name":"submittedAt","type":"uint256","internalType":"uint256"},{"name":"stake","type":"uint256","internalType":"uint256"},{"name":"disqualified","type":"bool","internalType":"bool"}]}],"stateMutability":"view"},{"type":"function","name":"getSubmissions","inputs":[],"outputs":[{"name":"","type":"tuple[]","internalType":"struct TaskLib.Submission[]","components":[{"name":"agent","type":"address","internalType":"address"},{"name":"proofHash","type":"bytes32","internalType":"bytes32"},{"name":"evidenceURI","type":"string","internalType":"string"},{"name":"submittedAt","type":"uint256","internalType":"uint256"},{"name":"stake","type":"uint256","internalType":"uint256"},{"name":"disqualified","type":"bool","internalType":"bool"}]}],"stateMutability":"view"},{"type":"function","name":"initialize","inputs":[{"name":"p","type":"tuple","internalType":"struct IMandalaTask.InitParams","components":[{"name":"coordinator","type":"address","internalType":"address"},{"name":"verifier","type":"address","internalType":"address"},{"name":"agentRegistry","type":"address","internalType":"address"},{"name":"policy","type":"address","internalType":"address"},{"name":"token","type":"address","internalType":"address"},{"name":"reward","type":"uint256","internalType":"uint256"},{"name":"stakeRequired","type":"uint256","internalType":"uint256"},{"name":"deadline","type":"uint256","internalType":"uint256"},{"name":"disputeWindow","type":"uint256","internalType":"uint256"},{"name":"criteriaHash","type":"bytes32","internalType":"bytes32"},{"name":"criteriaURI","type":"string","internalType":"string"},{"name":"humanGateEnabled","type":"bool","internalType":"bool"}]}],"outputs":[],"stateMutability":"payable"},{"type":"function","name":"pendingWinner","inputs":[],"outputs":[{"name":"","type":"address","internalType":"address"}],"stateMutability":"view"},{"type":"function","name":"policy","inputs":[],"outputs":[{"name":"","type":"address","internalType":"contract IMandalaPolicy"}],"stateMutability":"view"},{"type":"function","name":"resolveDispute","inputs":[{"name":"winner","type":"address","internalType":"address"}],"outputs":[],"stateMutability":"nonpayable"},{"type":"function","name":"selectWinner","inputs":[{"name":"agent","type":"address","internalType":"address"}],"outputs":[],"stateMutability":"nonpayable"},{"type":"function","name":"submissionCount","inputs":[],"outputs":[{"name":"","type":"uint256","internalType":"uint256"}],"stateMutability":"view"},{"type":"function","name":"submitProof","inputs":[{"name":"proofHash","type":"bytes32","internalType":"bytes32"},{"name":"evidenceURI","type":"string","internalType":"string"}],"outputs":[],"stateMutability":"payable"},{"type":"function","name":"timeRemaining","inputs":[],"outputs":[{"name":"","type":"uint256","internalType":"uint256"}],"stateMutability":"view"},{"type":"function","name":"winnerSelectedAt","inputs":[],"outputs":[{"name":"","type":"uint256","internalType":"uint256"}],"stateMutability":"view"},{"type":"event","name":"DisputeResolved","inputs":[{"name":"human","type":"address","indexed":true,"internalType":"address"},{"name":"winner","type":"address","indexed":true,"internalType":"address"}],"anonymous":false},{"type":"event","name":"Initialized","inputs":[{"name":"version","type":"uint64","indexed":false,"internalType":"uint64"}],"anonymous":false},{"type":"event","name":"ProofSubmitted","inputs":[{"name":"agent","type":"address","indexed":true,"internalType":"address"},{"name":"proofHash","type":"bytes32","indexed":false,"internalType":"bytes32"},{"name":"evidenceURI","type":"string","indexed":false,"internalType":"string"}],"anonymous":false},{"type":"event","name":"StakeReturned","inputs":[{"name":"agent","type":"address","indexed":true,"internalType":"address"},{"name":"amount","type":"uint256","indexed":false,"internalType":"uint256"}],"anonymous":false},{"type":"event","name":"StakeSlashed","inputs":[{"name":"agent","type":"address","indexed":true,"internalType":"address"},{"name":"amount","type":"uint256","indexed":false,"internalType":"uint256"}],"anonymous":false},{"type":"event","name":"TaskCancelled","inputs":[{"name":"by","type":"address","indexed":true,"internalType":"address"}],"anonymous":false},{"type":"event","name":"TaskDisputed","inputs":[{"name":"disputant","type":"address","indexed":true,"internalType":"address"},{"name":"against","type":"address","indexed":true,"internalType":"address"}],"anonymous":false},{"type":"event","name":"TaskFinalized","inputs":[{"name":"winner","type":"address","indexed":true,"internalType":"address"},{"name":"reward","type":"uint256","indexed":false,"internalType":"uint256"}],"anonymous":false},{"type":"event","name":"WinnerSelected","inputs":[{"name":"winner","type":"address","indexed":true,"internalType":"address"},{"name":"proofHash","type":"bytes32","indexed":false,"internalType":"bytes32"}],"anonymous":false},{"type":"error","name":"AgentSuspended","inputs":[]},{"type":"error","name":"AlreadySubmitted","inputs":[]},{"type":"error","name":"DeadlineNotPassed","inputs":[]},{"type":"error","name":"DisputeWindowActive","inputs":[]},{"type":"error","name":"DisputeWindowExpired","inputs":[]},{"type":"error","name":"HumanGateRequired","inputs":[]},{"type":"error","name":"InsufficientReward","inputs":[]},{"type":"error","name":"InsufficientStake","inputs":[]},{"type":"error","name":"InvalidInitialization","inputs":[]},{"type":"error","name":"InvalidWinner","inputs":[]},{"type":"error","name":"NoSubmissions","inputs":[]},{"type":"error","name":"NotCoordinator","inputs":[]},{"type":"error","name":"NotHuman","inputs":[]},{"type":"error","name":"NotInitializing","inputs":[]},{"type":"error","name":"NotRegisteredAgent","inputs":[]},{"type":"error","name":"NotVerifier","inputs":[]},{"type":"error","name":"PolicyPaused","inputs":[]},{"type":"error","name":"ReentrancyGuardReentrantCall","inputs":[]},{"type":"error","name":"SafeERC20FailedOperation","inputs":[{"name":"token","type":"address","internalType":"address"}]},{"type":"error","name":"TaskAlreadyFinalized","inputs":[]},{"type":"error","name":"TaskExpired","inputs":[]},{"type":"error","name":"TaskNotDisputed","inputs":[]},{"type":"error","name":"TaskNotOpen","inputs":[]},{"type":"error","name":"TaskNotVerifying","inputs":[]},{"type":"error","name":"TransferFailed","inputs":[]},{"type":"error","name":"ZeroAddress","inputs":[]}],"bytecode":{"object":"0x6080806040523461003a5760017f9b779b17422d0df92223018b32b4d1fa46e071723d6817e2486d003becc55f00556127d2908161003f8239f35b5f80fdfe608080604052600436101561001c575b50361561001a575f80fd5b005b5f905f3560e01c90816265a97f14611f53575080630505c8c914611f2b5780630d1cfcae14611f0357806310efbc2914611edb57806312856e6f14611cc257806340bc7fa214611c255780634bb278f31461197e57806354f6aa201461181b57806359b34383146117fd57806359bb46b4146117d4578063648206fb146117b95780636ec02be91461179b5780637bf6c104146116b8578063bea6d0e2146110d9578063c3f909d414610e6c578063d846118214610d21578063de33794d14610974578063de78acc614610324578063e3cfef60146103015763ea8a1af00361000f57346102fe57806003193601126102fe57610117612544565b600b546040516358c3de9360e11b81526001600160a01b03916020908290600490829086165afa9081156102f35783916102c4575b506102b2578082541633036102a0576009549060ff8260081c1692600584101561028c5760039360038114908115610281575b5061027057600d92600d54610255575b61ff00191661040017600955805b83548110156101c857806101c2846101b660019461226d565b905490891b1c1661265b565b0161019d565b508091806002541680155f14610240575081808092815416600354905af16101ee612227565b501561022e575b337fef300b1cbfdef30205b78d480ae8070d379b0fc8ce0702db9e7984a7121af5ab8280a260015f8051602061275d8339815191525580f35b6040516312171d8360e31b8152600490fd5b9061025092541660035491612573565b6101f5565b600554421161018f576040516302eb354360e41b8152600490fd5b6040516256836560e91b8152600490fd5b60049150145f61017f565b634e487b7160e01b81526021600452602490fd5b604051634f6429f360e11b8152600490fd5b6040516396be1a1b60e01b8152600490fd5b6102e6915060203d6020116102ec575b6102de81836120b2565b8101906121a2565b5f61014c565b503d6102d4565b6040513d85823e3d90fd5b80fd5b50346102fe57806003193601126102fe57602061031c61252e565b604051908152f35b50600319602036820112610970576001600160401b036004351161097057600435600401916101806004353603928301126102fe575f8051602061277d833981519152546001600160401b03811680159081610960575b6001149081610956575b15908161094d575b5061093b5760016001600160401b03198216175f8051602061277d8339815191525560ff8160401c161561090f575b6001600160a01b036103cd8561251a565b16156108fd574260e4600435013511156108eb5760a46004350135156108d9576001600160a01b0361040360043560840161251a565b16156108cb575b6001600160a01b0361042060043560440161251a565b166001600160601b0360a01b600a541617600a5560018060a01b0361044960646004350161251a565b16610468600b5495826001600160601b0360a01b881617600b5561251a565b9361047760246004350161251a565b61048560846004350161251a565b906004356101040135806108c557506202a300925b600435610144013590602219018112156108c15760043501936001600160401b036004860135116108c1576004850135360360248601136108c157600435610164013580151590036108c157600435610164013598891561084a575b50509061056b9392916040519761050c89612096565b6001600160a01b039081168952908116602089015216604087015260a46004803591820135606089015260c4820135608089015260e482013560a089015260c0880192909252610124013560e08701523691908101359060240161231e565b938461010085015215156101208401528161014084015260018060a01b038351166001600160601b0360a01b5f5416175f5560018060a01b036020840151166001600160601b0360a01b600154161760015560018060a01b036040840151166001600160601b0360a01b60025416176002556060830151600355608083015160045560a083015160055560c083015160065560e083015160075583516001600160401b0381116108365761062060085461201c565b601f81116107d2575b506020601f821160011461076157819084959661065b949592610756575b50508160011b915f199060031b1c19161790565b6008555b61012083015115156101406009549401519360058510156107425760ff61ff0081959660081b1692169061ffff1916171760095560018060a01b036106a860846004350161251a565b16610712575b60401c16156106ba5780f35b68ff0000000000000000195f8051602061277d83398151915254165f8051602061277d833981519152557fc7f505b2f371ae2175ee4913f4499e1f2633a7b5936321eed1cdaeb6115181d2602060405160018152a180f35b61073d6001600160a01b0361072b60043560840161251a565b1660a4600435013590309033906125f1565b6106ae565b634e487b7160e01b84526021600452602484fd5b015190505f80610647565b600884525f8051602061273d83398151915290845b601f19841681106107ba575060019394959683601f198116106107a2575b505050811b0160085561065f565b01515f1960f88460031b161c191690555f8080610794565b9091602060018192858b015181550193019101610776565b60085f52601f820160051c5f8051602061273d8339815191520160208310610822575b601f820160051c5f8051602061273d8339815191520181106108175750610629565b5f81556001016107f5565b505f8051602061273d8339815191526107f5565b634e487b7160e01b83526041600452602483fd5b604051635c857c9b60e01b81526004803560a4013590820152929950602091839160249183918b16175afa9081156108b6579061056b949392918791610897575b5097909192935f6104f6565b6108b0915060203d6020116102ec576102de81836120b2565b5f61088b565b6040513d88823e3d90fd5b8680fd5b9261049a565b3460043560a401351461040a575b604051636bbdb6db60e11b8152600490fd5b60405163c034310360e01b8152600490fd5b60405163d92e233d60e01b8152600490fd5b68ffffffffffffffffff19811668010000000000000001175f8051602061277d833981519152556103bc565b60405163f92ee8a960e01b8152600490fd5b9050155f61038d565b303b159150610385565b604083901c60ff1615915061037b565b5080fd5b50346102fe5760403660031901126102fe5761098e611f76565b6001600160401b03602435818111610d1d576109ae903690600401612175565b600b546040516358c3de9360e11b815292936001600160a01b039360209283908290600490829089165afa908115610d12578891610cf5575b506102b25760ff60095460081c16906005821015610ce1576001809203610ccf57610a17601154600654906121eb565b4211610cbd5760248386600a54166040519283809263c3c5a54760e01b82523360048301525afa908115610cb2578991610c95575b501580610c88575b610c7657846001600160601b0360a01b973389600e541617600e55168097600f541617600f558311610c62579086939291610a9060105461201c565b601f8111610bf0575b508491601f8411600114610b6657505081908495610acb949592610b5b5750508160011b915f199060031b1c19161790565b6010555b61020061ff00196009541617600955600a5416803b15610970578180916024604051809481936317517f8d60e31b83528860048401525af18015610b5057610b3c575b5050337f372e96ad22ed0c0718087dc6af1ae1903503a3163b582c4774ab5c6390a5c01b8380a380f35b610b4590612083565b61097057815f610b12565b6040513d84823e3d90fd5b013590505f80610647565b60108652601f198416967f1b6847dc741a1b0cd08d278845f9d819d87b734759afb55fe2de5cb82a9ae672939092909187915b898310610bd65750505083600195969710610bbd575b505050811b01601055610acf565b01355f19600384901b60f8161c191690555f8080610baf565b8385013586558b9850948501949281019291810191610b99565b90919293945060105f527f1b6847dc741a1b0cd08d278845f9d819d87b734759afb55fe2de5cb82a9ae672601f850160051c810191848610610c58575b90601f8a9796959493920160051c01905b818110610c4b5750610a99565b5f81558996508201610c3e565b9091508190610c2d565b634e487b7160e01b87526041600452602487fd5b604051637b5b95df60e11b8152600490fd5b5084885416331415610a54565b610cac9150843d86116102ec576102de81836120b2565b5f610a4c565b6040513d8b823e3d90fd5b60405163234c0ffd60e21b8152600490fd5b60405163b80a29e160e01b8152600490fd5b634e487b7160e01b88526021600452602488fd5b610d0c9150833d85116102ec576102de81836120b2565b5f6109e7565b6040513d8a823e3d90fd5b8380fd5b50346102fe5760208060031936011261097057610d3c611f76565b90610d45612544565b600b546040516358c3de9360e11b81526001600160a01b03909116908281600481855afa908115610e61578591610e44575b506102b257816024916040519283809263f72c436f60e01b82523360048301525afa918215610e39578492610e1c575b505015610e0a5760ff60095460081c166005811015610df657600203610de457610dd090612354565b60015f8051602061275d8339815191525580f35b604051630335c25360e21b8152600490fd5b634e487b7160e01b83526021600452602483fd5b604051632d53a0d360e21b8152600490fd5b610e329250803d106102ec576102de81836120b2565b5f80610da7565b6040513d86823e3d90fd5b610e5b9150833d85116102ec576102de81836120b2565b5f610d77565b6040513d87823e3d90fd5b50346102fe57806003193601126102fe5780610140604051610e8d81612096565b8281528260208201528260408201528260608201528260808201528260a08201528260c08201528260e08201526060610100820152826101208201520152604051610ed781612096565b81546001600160a01b03908116825260018054821660208401526002549091166040808401919091526003546060840152600454608084015260055460a084015260065460c084015260075460e084015251600854909182905f90610f3b8461201c565b80845293600181169081156110b7575060011461106c575b50610f60925003826120b2565b61010082015260095460ff81161515610120830152600560ff8260081c1610156110585760ff9060081c16610140820152604051906020825260018060a01b03815116602083015260018060a01b03602082015116604083015260018060a01b03604082015116606083015260608101516080830152608081015160a083015260a081015160c083015260c081015160e083015260e08101516101008301526101008101516101406110216101609283610120870152610180860190611f8c565b926101208101511515828601520151906005821015611044578380955001520390f35b634e487b7160e01b85526021600452602485fd5b634e487b7160e01b5f52602160045260245ffd5b60085f90815291505f8051602061273d8339815191525b84831061109c5750610f6093505081016020015f610f53565b81935090816020925483858901015201910190918492611083565b905060209250610f6094915060ff191682840152151560051b8201015f610f53565b5060403660031901126102fe576001600160401b0360243581811161145757611106903690600401612175565b9161110f612544565b600b546040516358c3de9360e11b81526001600160a01b0390911690602081600481855afa9081156108b6578691611699575b506102b25760ff60095460081c166005811015611685576116735760055442116108eb57600a5460405163c3c5a54760e01b81523360048201526001600160a01b0390911690602081602481855afa908115611668578791611649575b5015610c7657602060249160405192838092631197074d60e11b82523360048301525afa9081156108b657869161162a575b506115f95760405163fe575a8760e01b8152336004820152602081602481855afa9081156108b657869161160b575b506115f957338552600c60205260408520546001600160a01b03166115e75760045490604051632817b41360e11b90818152602081600481865afa908115610d125788916115b5575b508311156115595750505b6002546001600160a01b031680611536575034905b8110611524576040519161127c83612054565b3383526020830191600435835261129436878761231e565b906040850191825242606086015260808501528660a0850152338752600c602052604087209260018060a01b038551166001600160601b0360a01b855416178455516001840155518051918211610c62576112f2600284015461201c565b601f81116114e0575b50602090601f831160011461146f578260059360a09593611330938b926107565750508160011b915f199060031b1c19161790565b60028201555b606084015160038201556080840151600482015501910151151560ff80198354169116179055600d546801000000000000000081101561145b578060016113809201600d5561226d565b81546001600160a01b0360039290921b82811b199091163390911b17909155600a54849116803b1561097057818091602460405180948193632bd2264160e11b83523360048401525af18015610b5057611443575b50507f815fd33ada9ff4249c188bee382fd4e83352dfb49fbbde9918268005f8f1cea6908260405191600435835260406020840152816040840152606083013783606084830101526060813394601f80199101168101030190a260015f8051602061275d8339815191525580f35b61144c90612083565b61145757825f6113d5565b8280fd5b634e487b7160e01b84526041600452602484fd5b906002840188526020882091885b601f19851681106114c857509260a0949260019260059583601f198116106114b0575b505050811b016002820155611336565b01515f1960f88460031b161c191690555f80806114a0565b9192602060018192868501518155019401920161147d565b600284015f5260205f20601f840160051c81016020851061151d575b601f830160051c820181106115125750506112fb565b5f81556001016114fc565b50806114fc565b6040516378de4a6960e11b8152600490fd5b8180611545575b905090611269565b61155291309033906125f1565b5f8161153d565b602091925060046040518094819382525afa908115610e6157859161157f575b50611254565b90506020813d6020116115ad575b8161159a602093836120b2565b810103126115a957515f611579565b5f80fd5b3d915061158d565b90506020813d6020116115df575b816115d0602093836120b2565b810103126115a957515f611249565b3d91506115c3565b604051639fbfc58960e01b8152600490fd5b60405163be06741760e01b8152600490fd5b611624915060203d6020116102ec576102de81836120b2565b5f611200565b611643915060203d6020116102ec576102de81836120b2565b5f6111d1565b611662915060203d6020116102ec576102de81836120b2565b5f61119f565b6040513d89823e3d90fd5b60405163fe89421760e01b8152600490fd5b634e487b7160e01b86526021600452602486fd5b6116b2915060203d6020116102ec576102de81836120b2565b5f611142565b50346102fe57806003193601126102fe576040516010545f826116da8361201c565b91828252602093600190856001821691825f1461177b575050600114611720575b50611708925003836120b2565b61171c604051928284938452830190611f8c565b0390f35b84915060105f527f1b6847dc741a1b0cd08d278845f9d819d87b734759afb55fe2de5cb82a9ae672905f915b8583106117635750506117089350820101856116fb565b8054838901850152879450869390920191810161174c565b60ff19168582015261170895151560051b85010192508791506116fb9050565b50346102fe57806003193601126102fe576020600d54604051908152f35b50346102fe57806003193601126102fe57602061031c6122d7565b50346102fe57806003193601126102fe57600e546040516001600160a01b039091168152602090f35b50346102fe57806003193601126102fe576020601154604051908152f35b50346102fe57806003193601126102fe57600d549061183982612256565b61184660405191826120b2565b82815261185283612256565b60209390601f1901835b818110611963575050825b8181106118cc57505060405191838301848452825180915260408401948060408360051b870101940192955b8287106118a05785850386f35b9091929382806118bc600193603f198a82030186528851611fca565b9601920196019592919092611893565b80600560ff6118df60019498979861226d565b858060a09593951b03809454600392831b1c168a52600c895260408a20906040519461190a86612054565b8254168552868201548a860152611923600283016120d3565b6040860152810154606085015260048101546080850152015416151560a082015261194e82866122b6565b5261195981856122b6565b5001939293611867565b9480949561196f6121ba565b8282870101520194939461185c565b50346115a9575f3660031901126115a957611997612544565b600b546040516358c3de9360e11b81526001600160a01b0391821691906020908181600481875afa908115611b2f575f91611c08575b506102b2576009549260ff8460081c16906005821015611058576001809203610ccf576119ff601154600654906121eb565b421115611bf6578260ff8616611b8f575b50508260125416938415611b7d5761ff001916610300176009555f815b611b3a575b5050825f52600c8152611a4e600460405f2001546003546121eb565b9180600a5416803b156115a9575f80916024604051809481936339cda3e560e11b83528a60048401525af18015611b2f57611b1c575b50600254169184908484611aeb5782939450829182915af1611aa4612227565b501561022e577fc762f7b9b16fc57f9c347c3f1c88e06046c17532e87a7ab5794d60322272318d905b600354604051908152a260015f8051602061275d8339815191525580f35b611b1792507fc762f7b9b16fc57f9c347c3f1c88e06046c17532e87a7ab5794d60322272318d94612573565b611acd565b611b27919550612083565b5f935f611a84565b6040513d5f823e3d90fd5b600d54811015611b7857818185611b51839461226d565b90549060031b1c16878103611b69575b500190611a2d565b611b729061265b565b5f611b61565b611a32565b6040516393a5f3c760e01b8152600490fd5b60405163f72c436f60e01b815233600482015291829060249082905afa908115611b2f575f91611bd9575b5015611bc7575f82611a10565b6040516343e91ba560e11b8152600490fd5b611bf09150833d85116102ec576102de81836120b2565b5f611bba565b60405163e52e798f60e01b8152600490fd5b611c1f9150823d84116102ec576102de81836120b2565b5f6119cd565b346115a95760203660031901126115a95761171c611c41611f76565b611c496121ba565b5060018060a01b038091165f52600c60205260ff600560405f2060405193611c7085612054565b815416845260018101546020850152611c8b600282016120d3565b60408501526003810154606085015260048101546080850152015416151560a0820152604051918291602083526020830190611fca565b346115a9576020806003193601126115a957611cdc611f76565b600b546040516358c3de9360e11b81526001600160a01b03939182908290600490829088165afa908115611b2f575f91611ebe575b506102b25760015483168015611e0c573303611dfa575b6009549160ff8360081c166005811015611058578015159081611dee575b5061027057600d5415611ddc57831692835f52600c825260405f20541615611b7d57825f52600c815260ff600560405f20015416611b7d576101007f9c8e521bb12a98e1124be9764b3f4e859cc02ecee64b39eef8b801bce511d0ef92846001600160601b0360a01b60125416176012554260115561ff00191617600955825f52600c8152600160405f200154604051908152a2005b60405163aa71014560e01b8152600490fd5b60019150141585611d46565b6040516312331aab60e11b8152600490fd5b5082600a541660405163c3c5a54760e01b81523360048201528281602481855afa908115611b2f575f91611ea1575b5015610c76578160249160405192838092631197074d60e11b82523360048301525afa908115611b2f575f91611e84575b5015611d285760405163be06741760e01b8152600490fd5b611e9b9150823d84116102ec576102de81836120b2565b84611e6c565b611eb89150833d85116102ec576102de81836120b2565b85611e3b565b611ed59150823d84116102ec576102de81836120b2565b84611d11565b346115a9575f3660031901126115a9576012546040516001600160a01b039091168152602090f35b346115a9575f3660031901126115a957600a546040516001600160a01b039091168152602090f35b346115a9575f3660031901126115a957600b546040516001600160a01b039091168152602090f35b346115a9575f3660031901126115a957600f546001600160a01b03168152602090f35b600435906001600160a01b03821682036115a957565b91908251928382525f5b848110611fb6575050825f602080949584010152601f8019910116010190565b602081830181015184830182015201611f96565b9060018060a01b0382511681526020820151602082015260a080611ffd604085015160c0604086015260c0850190611f8c565b9360608101516060850152608081015160808501520151151591015290565b90600182811c9216801561204a575b602083101461203657565b634e487b7160e01b5f52602260045260245ffd5b91607f169161202b565b60c081019081106001600160401b0382111761206f57604052565b634e487b7160e01b5f52604160045260245ffd5b6001600160401b03811161206f57604052565b61016081019081106001600160401b0382111761206f57604052565b90601f801991011681019081106001600160401b0382111761206f57604052565b9060405191825f82546120e58161201c565b908184526020946001916001811690815f146121535750600114612115575b505050612113925003836120b2565b565b5f90815285812095935091905b81831061213b57505061211393508201015f8080612104565b85548884018501529485019487945091830191612122565b9250505061211394925060ff191682840152151560051b8201015f8080612104565b9181601f840112156115a9578235916001600160401b0383116115a957602083818601950101116115a957565b908160209103126115a9575180151581036115a95790565b604051906121c782612054565b5f60a083828152826020820152606060408201528260608201528260808201520152565b919082018092116121f857565b634e487b7160e01b5f52601160045260245ffd5b6001600160401b03811161206f57601f01601f191660200190565b3d15612251573d906122388261220c565b9161224660405193846120b2565b82523d5f602084013e565b606090565b6001600160401b03811161206f5760051b60200190565b600d548110156122a257600d5f527fd7b6990105719101dabeb77144f2a3385c8033acd3af97e9423a695e81ad1eb501905f90565b634e487b7160e01b5f52603260045260245ffd5b80518210156122a25760209160051b010190565b919082039182116121f857565b60ff60095460081c1660058110156110585760010361231a576122ff601154600654906121eb565b80421015612315576123129042906122ca565b90565b505f90565b5f90565b92919261232a8261220c565b9161233860405193846120b2565b8294818452818301116115a9578281602093845f960137010152565b6001600160a01b039081169081156123c557815f52600c60205260405f20541615611b7d57601280546001600160a01b031916821790556009805461ff00191661010017905542601155337fd2dc052bee2b52c6f56a2b5bc488360183af7ee2f1b7e600a0e3c0e9337dd4e85f80a3565b905061040061ff00196009541617600955600f81600f54165f52600c602052600460405f2001905f8254925582600f54165f52600560405f2001906001928392600160ff19825416179055806124e4575b505f915b612489575b505050806002541680155f1461247457505f80808093815416600354905af1612446612227565b501561022e575b337fef300b1cbfdef30205b78d480ae8070d379b0fc8ce0702db9e7984a7121af5ab5f80a2565b612484915f541660035491612573565b61244d565b600d548210156124df578282856124a0839561226d565b91905491816003938188541692851b1c16036124c0575b5050019161241a565b6124d8916124cd8461226d565b9054911b1c1661265b565b5f866124b7565b61241f565b7f83f5ea8bea7627d95274e94dd7e9e3d7e82cb55feab513ed49e325232dcc61e0602086600f541692604051908152a25f612416565b356001600160a01b03811681036115a95790565b60055480421015612315576123129042906122ca565b5f8051602061275d83398151915260028154146125615760029055565b604051633ee5aeb560e01b8152600490fd5b60405163a9059cbb60e01b5f9081526001600160a01b039384166004526024949094529260209060448180855af160015f51148116156125d2575b83604052156125bc57505050565b635274afe760e01b835216600482015260249150fd5b60018115166125e857813b15153d1516166125ae565b833d5f823e3d90fd5b6040516323b872dd60e01b5f9081526001600160a01b03938416600452938316602452604494909452909160209060648180855af160015f5114811615612645575b836040525f606052156125bc57505050565b60018115166125e857813b15153d151616612633565b6001600160a01b038181165f818152600c60205260409020600401805491939192908315612735575f9055600254168061270157505f80808481945af16126a0612227565b50156126d45760207fd2ba84da58fee5faf229bb112f12eec4ff1d1be2f6b9c38440dd02d482b32cff915b604051908152a2565b60207f83f5ea8bea7627d95274e94dd7e9e3d7e82cb55feab513ed49e325232dcc61e091604051908152a2565b91612730816020937fd2ba84da58fee5faf229bb112f12eec4ff1d1be2f6b9c38440dd02d482b32cff95612573565b6126cb565b505050505056fef3f7a9fe364faab93b216da50a3214154f22a0a2b415b23a84c8169e8b636ee39b779b17422d0df92223018b32b4d1fa46e071723d6817e2486d003becc55f00f0c57e16840df040f15088dc2f81fe391c3923bec73e23a9662efc9c229c6a00a264697066735822122027ec47d3999f5179ab6844c62c37670620ccc25a0b030f829a82c72541a7385964736f6c63430008180033","linkReferences":{}},"methodIdentifiers":{"agentRegistry()":"0d1cfcae","cancel()":"ea8a1af0","disputant()":"59bb46b4","dispute(address,string)":"de33794d","disputeReason()":"7bf6c104","disputeTimeRemaining()":"648206fb","disputedAgainst()":"0065a97f","finalize()":"4bb278f3","getConfig()":"c3f909d4","getSubmission(address)":"40bc7fa2","getSubmissions()":"54f6aa20","initialize((address,address,address,address,address,uint256,uint256,uint256,uint256,bytes32,string,bool))":"de78acc6","pendingWinner()":"10efbc29","policy()":"0505c8c9","resolveDispute(address)":"d8461182","selectWinner(address)":"12856e6f","submissionCount()":"6ec02be9","submitProof(bytes32,string)":"bea6d0e2","timeRemaining()":"e3cfef60","winnerSelectedAt()":"59b34383"},"id":42}