{"abi":[{"type":"constructor","inputs":[{"name":"admin","type":"address","internalType":"address"},{"name":"_policy","type":"address","internalType":"address"}],"stateMutability":"nonpayable"},{"type":"function","name":"DEFAULT_ADMIN_ROLE","inputs":[],"outputs":[{"name":"","type":"bytes32","internalType":"bytes32"}],"stateMutability":"view"},{"type":"function","name":"HUMAN_ROLE","inputs":[],"outputs":[{"name":"","type":"bytes32","internalType":"bytes32"}],"stateMutability":"view"},{"type":"function","name":"MANAGER_ROLE","inputs":[],"outputs":[{"name":"","type":"bytes32","internalType":"bytes32"}],"stateMutability":"view"},{"type":"function","name":"TASK_CONTRACT_ROLE","inputs":[],"outputs":[{"name":"","type":"bytes32","internalType":"bytes32"}],"stateMutability":"view"},{"type":"function","name":"getAgent","inputs":[{"name":"agent","type":"address","internalType":"address"}],"outputs":[{"name":"","type":"tuple","internalType":"struct TaskLib.AgentInfo","components":[{"name":"agentAddress","type":"address","internalType":"address"},{"name":"erc8004Id","type":"bytes32","internalType":"bytes32"},{"name":"metadataURI","type":"string","internalType":"string"},{"name":"totalTasks","type":"uint256","internalType":"uint256"},{"name":"wins","type":"uint256","internalType":"uint256"},{"name":"disputes","type":"uint256","internalType":"uint256"},{"name":"stakedBalance","type":"uint256","internalType":"uint256"},{"name":"suspended","type":"bool","internalType":"bool"},{"name":"registeredAt","type":"uint256","internalType":"uint256"}]}],"stateMutability":"view"},{"type":"function","name":"getAllAgents","inputs":[],"outputs":[{"name":"","type":"address[]","internalType":"address[]"}],"stateMutability":"view"},{"type":"function","name":"getRoleAdmin","inputs":[{"name":"role","type":"bytes32","internalType":"bytes32"}],"outputs":[{"name":"","type":"bytes32","internalType":"bytes32"}],"stateMutability":"view"},{"type":"function","name":"grantRole","inputs":[{"name":"role","type":"bytes32","internalType":"bytes32"},{"name":"account","type":"address","internalType":"address"}],"outputs":[],"stateMutability":"nonpayable"},{"type":"function","name":"grantTaskRole","inputs":[{"name":"taskContract","type":"address","internalType":"address"}],"outputs":[],"stateMutability":"nonpayable"},{"type":"function","name":"hasRole","inputs":[{"name":"role","type":"bytes32","internalType":"bytes32"},{"name":"account","type":"address","internalType":"address"}],"outputs":[{"name":"","type":"bool","internalType":"bool"}],"stateMutability":"view"},{"type":"function","name":"isRegistered","inputs":[{"name":"agent","type":"address","internalType":"address"}],"outputs":[{"name":"","type":"bool","internalType":"bool"}],"stateMutability":"view"},{"type":"function","name":"isSuspended","inputs":[{"name":"agent","type":"address","internalType":"address"}],"outputs":[{"name":"","type":"bool","internalType":"bool"}],"stateMutability":"view"},{"type":"function","name":"policy","inputs":[],"outputs":[{"name":"","type":"address","internalType":"contract IMandalaPolicy"}],"stateMutability":"view"},{"type":"function","name":"recordDispute","inputs":[{"name":"agent","type":"address","internalType":"address"}],"outputs":[],"stateMutability":"nonpayable"},{"type":"function","name":"recordTaskParticipation","inputs":[{"name":"agent","type":"address","internalType":"address"}],"outputs":[],"stateMutability":"nonpayable"},{"type":"function","name":"recordWin","inputs":[{"name":"agent","type":"address","internalType":"address"}],"outputs":[],"stateMutability":"nonpayable"},{"type":"function","name":"register","inputs":[{"name":"erc8004Id","type":"bytes32","internalType":"bytes32"},{"name":"metadataURI","type":"string","internalType":"string"}],"outputs":[],"stateMutability":"nonpayable"},{"type":"function","name":"reinstate","inputs":[{"name":"agent","type":"address","internalType":"address"}],"outputs":[],"stateMutability":"nonpayable"},{"type":"function","name":"renounceRole","inputs":[{"name":"role","type":"bytes32","internalType":"bytes32"},{"name":"callerConfirmation","type":"address","internalType":"address"}],"outputs":[],"stateMutability":"nonpayable"},{"type":"function","name":"reputationScore","inputs":[{"name":"agent","type":"address","internalType":"address"}],"outputs":[{"name":"","type":"uint256","internalType":"uint256"}],"stateMutability":"view"},{"type":"function","name":"revokeRole","inputs":[{"name":"role","type":"bytes32","internalType":"bytes32"},{"name":"account","type":"address","internalType":"address"}],"outputs":[],"stateMutability":"nonpayable"},{"type":"function","name":"supportsInterface","inputs":[{"name":"interfaceId","type":"bytes4","internalType":"bytes4"}],"outputs":[{"name":"","type":"bool","internalType":"bool"}],"stateMutability":"view"},{"type":"function","name":"suspend","inputs":[{"name":"agent","type":"address","internalType":"address"}],"outputs":[],"stateMutability":"nonpayable"},{"type":"event","name":"AgentRegistered","inputs":[{"name":"agent","type":"address","indexed":true,"internalType":"address"},{"name":"erc8004Id","type":"bytes32","indexed":false,"internalType":"bytes32"}],"anonymous":false},{"type":"event","name":"AgentReinstated","inputs":[{"name":"agent","type":"address","indexed":true,"internalType":"address"},{"name":"by","type":"address","indexed":true,"internalType":"address"}],"anonymous":false},{"type":"event","name":"AgentSuspended","inputs":[{"name":"agent","type":"address","indexed":true,"internalType":"address"},{"name":"by","type":"address","indexed":true,"internalType":"address"}],"anonymous":false},{"type":"event","name":"ReputationUpdated","inputs":[{"name":"agent","type":"address","indexed":true,"internalType":"address"},{"name":"wins","type":"uint256","indexed":false,"internalType":"uint256"},{"name":"disputes","type":"uint256","indexed":false,"internalType":"uint256"}],"anonymous":false},{"type":"event","name":"RoleAdminChanged","inputs":[{"name":"role","type":"bytes32","indexed":true,"internalType":"bytes32"},{"name":"previousAdminRole","type":"bytes32","indexed":true,"internalType":"bytes32"},{"name":"newAdminRole","type":"bytes32","indexed":true,"internalType":"bytes32"}],"anonymous":false},{"type":"event","name":"RoleGranted","inputs":[{"name":"role","type":"bytes32","indexed":true,"internalType":"bytes32"},{"name":"account","type":"address","indexed":true,"internalType":"address"},{"name":"sender","type":"address","indexed":true,"internalType":"address"}],"anonymous":false},{"type":"event","name":"RoleRevoked","inputs":[{"name":"role","type":"bytes32","indexed":true,"internalType":"bytes32"},{"name":"account","type":"address","indexed":true,"internalType":"address"},{"name":"sender","type":"address","indexed":true,"internalType":"address"}],"anonymous":false},{"type":"event","name":"StakeDeposited","inputs":[{"name":"agent","type":"address","indexed":true,"internalType":"address"},{"name":"amount","type":"uint256","indexed":false,"internalType":"uint256"}],"anonymous":false},{"type":"event","name":"StakeWithdrawn","inputs":[{"name":"agent","type":"address","indexed":true,"internalType":"address"},{"name":"amount","type":"uint256","indexed":false,"internalType":"uint256"}],"anonymous":false},{"type":"error","name":"AccessControlBadConfirmation","inputs":[]},{"type":"error","name":"AccessControlUnauthorizedAccount","inputs":[{"name":"account","type":"address","internalType":"address"},{"name":"neededRole","type":"bytes32","internalType":"bytes32"}]},{"type":"error","name":"AgentAlreadyRegistered","inputs":[]},{"type":"error","name":"AgentSuspended","inputs":[]},{"type":"error","name":"PolicyPaused","inputs":[]},{"type":"error","name":"ZeroAddress","inputs":[]}],"bytecode":{"object":"0x60a034620000d457601f620015fd38819003918201601f19168301916001600160401b03831184841017620000d8578084926040948552833981010312620000d4576200005a60206200005283620000ec565b9201620000ec565b6001600160a01b0391808316158015620000c9575b620000b75780620000846200008b9262000101565b5062000171565b50166080526040516113ab908162000212823960805181818161040c01528181610d580152610e5b0152f35b60405163d92e233d60e01b8152600490fd5b50828216156200006f565b5f80fd5b634e487b7160e01b5f52604160045260245ffd5b51906001600160a01b0382168203620000d457565b6001600160a01b03165f8181525f80516020620015dd833981519152602052604090205460ff166200016c575f8181525f80516020620015dd83398151915260205260408120805460ff191660011790553391905f80516020620015bd8339815191528180a4600190565b505f90565b6001600160a01b03165f8181527fae3085c8f973ed9a1023c8ce5aa371f3f1b339465f735caab7581f6a81e0ad6760205260409020547f5b4fb3b705b172d11b8c2772c1720020f0174a425e64abadd2a402a139f88ae4919060ff166200020b57815f525f60205260405f20815f5260205260405f20600160ff1982541617905533915f80516020620015bd8339815191525f80a4600190565b50505f9056fe6080806040526004361015610012575f80fd5b5f3560e01c90816301ffc9a714610e8a575080630505c8c914610e46578063074d041614610dae578063232e0e9a14610cef578063248a9ca314610cc3578063286781c714610c585780632f2ff15d14610c1c57806333d6f66214610be257806336568abe14610b9b57806350d061cb14610b7057806357a44c8214610b285780637287c4eb14610aee578063739b47ca14610a44578063830aebd9146109d9578063860e4ac61461091557806391d14854146108cd578063a217fddf146108b3578063ba8bfc6814610813578063c3c5a547146107d8578063cf2d31fb146103a8578063d547741f1461036a578063ec87621c146103305763fb3551ff14610119575f80fd5b3461032c5760208060031936011261032c57610133610edd565b60405161013f81610f09565b5f81525f83820152606060408201525f60608201525f60808201525f60a08201525f60c08201525f60e08201525f6101008092015260018060a01b038092165f52600180845260405f20916040519361019785610f09565b80845416855260018401549186860192835286600286016040519586915f918154916101c283610f74565b808652926001811690811561030957506001146102cb575b5050506101e992500385610f3a565b60408601938452600385015494606087019586526004810154936080880194855260058201549560a0890196875260068301549160c08a01928352600860ff6007860154169460e08c019515158652015495858b019687526040519a8c8c5251168b8b01525160408a01525195610120958660608b0152875197886101408c01525f5b8981106102b6575050899a5061016099985f8b8a8c0101525160808a01525160a08901525160c08801525160e0870152511515908501525190830152601f80199101168101030190f35b8181018d01518c820161016001528c0161026c565b5f90815285812095935091905b8183106102f157508b9450508201016101e95f806101da565b85548a840185015294850194899450918301916102d8565b925050506101e994925060ff191682840152151560051b82010189925f806101da565b5f80fd5b3461032c575f36600319011261032c5760206040517f241ecf16d79d0f8dbfb92cbc07fe17840425976cf0667f022fe9877caa831b088152f35b3461032c57604036600319011261032c576103a6600435610389610ef3565b90805f525f6020526103a1600160405f2001546111c1565b611303565b005b3461032c57604036600319011261032c576004356024803567ffffffffffffffff80821161032c573660238301121561032c5781600401359080821161032c573684838501011161032c576040516358c3de9360e11b81526001600160a01b0393907f0000000000000000000000000000000000000000000000000000000000000000851690602081600481855afa90811561078a575f916107b9575b506107a757335f5260016020528460405f20541661079557602086916040519283809263fe575a8760e01b82523360048301525afa90811561078a575f9161075b575b50610749576040519261049a84610f09565b3384525f6020808601928984528089604051966104c085601f19601f8601160189610f3a565b828852018387013784010152604084019182525f60608501525f60808501525f60a08501525f60c08501525f60e085015242610100850152335f52600160205260405f20948451166bffffffffffffffffffffffff60a01b8654161785555160018501555180519182116107365761053b6002850154610f74565b601f81116106f2575b50602090601f831160011461068057918060089492610100945f92610675575b50508160011b915f199060031b1c19161760028501555b606081015160038501556080810151600485015560a0810151600585015560c081015160068501556007840160e0820151151560ff801983541691161790550151910155600254906801000000000000000082101561066257600182018060025582101561064f575060025f527f405787fa12a823e0f2b7631cc41b3ba8828b3321ca811111fa75cd3aa3bb5ace01336bffffffffffffffffffffffff60a01b8254161790556040519081527f2f1f603fdbf809c5197d557d6fe61c1fd7f3ce5e6d39cc41367006956574943760203392a2005b634e487b7160e01b5f9081526032600452fd5b634e487b7160e01b5f9081526041600452fd5b015190508880610564565b90600285015f5260205f20915f5b601f19851681106106da575092600894926001926101009583601f198116106106c2575b505050811b01600285015561057b565b01515f1960f88460031b161c191690558880806106b2565b9192602060018192868501518155019401920161068e565b600285015f5260205f20601f840160051c81016020851061072f575b601f830160051c82018110610724575050610544565b5f815560010161070e565b508061070e565b84634e487b7160e01b5f5260416004525ffd5b60405163be06741760e01b8152600490fd5b61077d915060203d602011610783575b6107758183610f3a565b810190610f5c565b87610488565b503d61076b565b6040513d5f823e3d90fd5b60405163704c69f760e11b8152600490fd5b6040516396be1a1b60e01b8152600490fd5b6107d2915060203d602011610783576107758183610f3a565b88610445565b3461032c57602036600319011261032c5760206001600160a01b03806107fc610edd565b165f526001825260405f2054161515604051908152f35b3461032c57602036600319011261032c5761082c610edd565b610834611166565b60018060a01b0316805f526001602052600560405f20018054906001820180921161089f5755805f5260016020527f5b88a2e3fc1a53234357ab78c104df11c33ccfa79886793654565ad70b8afb6e6040805f206005600482015491015482519182526020820152a2005b634e487b7160e01b5f52601160045260245ffd5b3461032c575f36600319011261032c5760206040515f8152f35b3461032c57604036600319011261032c576108e6610ef3565b6004355f525f60205260405f209060018060a01b03165f52602052602060ff60405f2054166040519015158152f35b3461032c575f36600319011261032c57604051806002548083526020809301809160025f527f405787fa12a823e0f2b7631cc41b3ba8828b3321ca811111fa75cd3aa3bb5ace905f5b868282106109bc57868661097482880383610f3a565b60405192839281840190828552518091526040840192915f5b82811061099c57505050500390f35b83516001600160a01b03168552869550938101939281019260010161098d565b83546001600160a01b03168552909301926001928301920161095e565b3461032c57602036600319011261032c576109f2610edd565b6109fa61110b565b6001600160a01b03165f818152600160205260408120600701805460ff191690553391907ff3032bd731ba4e6c0c8c1b1a095d4aa639cc0eac373cce622f94707ed686dba09080a3005b3461032c57602036600319011261032c57610a5d610edd565b610a65611166565b60018060a01b0316805f526001602052600460405f20018054906001820180921161089f5755805f526001602052600360405f20018054906001820180921161089f5755805f5260016020527f5b88a2e3fc1a53234357ab78c104df11c33ccfa79886793654565ad70b8afb6e6040805f206005600482015491015482519182526020820152a2005b3461032c575f36600319011261032c5760206040517fdc1b643a5fbe5cc356c33f15c2785907cf9ce63d1190f80a635812a8ddccc4b48152f35b3461032c57602036600319011261032c57610b41610edd565b610b49611166565b60018060a01b03165f526001602052600360405f20018054906001820180921161089f5755005b3461032c57602036600319011261032c576020610b93610b8e610edd565b610fac565b604051908152f35b3461032c57604036600319011261032c57610bb4610ef3565b336001600160a01b03821603610bd0576103a690600435611303565b60405163334bd91960e11b8152600490fd5b3461032c575f36600319011261032c5760206040517f5b4fb3b705b172d11b8c2772c1720020f0174a425e64abadd2a402a139f88ae48152f35b3461032c57604036600319011261032c576103a6600435610c3b610ef3565b90805f525f602052610c53600160405f2001546111c1565b61128d565b3461032c57602036600319011261032c57610c71610edd565b610c7961110b565b60018060a01b0316805f526001602052600760405f2001600160ff1982541617905533907f564de5ac65f80cb36b627ddd7f032c18435e0c71f012650236abd9d7dfa4b7915f80a3005b3461032c57602036600319011261032c576004355f525f6020526020600160405f200154604051908152f35b3461032c5760208060031936011261032c576001600160a01b0380610d12610edd565b1690815f52600183528260ff600760405f20015416928315610d3a575b506040518315158152f35b9091925060246040518094819363fe575a8760e01b835260048301527f0000000000000000000000000000000000000000000000000000000000000000165afa90811561078a575f91610d91575b50828281610d2f565b610da89150823d8411610783576107758183610f3a565b82610d88565b3461032c57602036600319011261032c57610dc7610edd565b335f9081527fe84508f2c7fa9c351146748b3025cb78b45df37d868e48c6a75102fecdeee64560205260409020547f241ecf16d79d0f8dbfb92cbc07fe17840425976cf0667f022fe9877caa831b089060ff1615610e28576103a6826111e2565b6044906040519063e2517d3f60e01b82523360048301526024820152fd5b3461032c575f36600319011261032c576040517f00000000000000000000000000000000000000000000000000000000000000006001600160a01b03168152602090f35b3461032c57602036600319011261032c576004359063ffffffff60e01b821680920361032c57602091637965db0b60e01b8114908115610ecc575b5015158152f35b6301ffc9a760e01b14905083610ec5565b600435906001600160a01b038216820361032c57565b602435906001600160a01b038216820361032c57565b610120810190811067ffffffffffffffff821117610f2657604052565b634e487b7160e01b5f52604160045260245ffd5b90601f8019910116810190811067ffffffffffffffff821117610f2657604052565b9081602091031261032c5751801515810361032c5790565b90600182811c92168015610fa2575b6020831014610f8e57565b634e487b7160e01b5f52602260045260245ffd5b91607f1691610f83565b6001600160a01b039081165f9081526001602081815260409283902092519293610fd584610f09565b8454168352600184015481840152600284016040519283915f91815491610ffb83610f74565b80865292600181169081156110e957506001146110ab575b50505061102292500382610f3a565b6040820152600382015460608201918183526101006008600486015495866080850152600581015460a0850152600681015460c085015260ff600782015416151560e08501520154910152156110a55760648202918083046064149015171561089f5751908115611091570490565b634e487b7160e01b5f52601260045260245ffd5b50505f90565b5f90815285812095935091905b8183106110d157505061102293508201015f8080611013565b855487840185015294850194869450918301916110b8565b9250505061102294925060ff191682840152151560051b8201015f8080611013565b335f9081527fae3085c8f973ed9a1023c8ce5aa371f3f1b339465f735caab7581f6a81e0ad6760205260409020547f5b4fb3b705b172d11b8c2772c1720020f0174a425e64abadd2a402a139f88ae49060ff1615610e285750565b335f9081527fa889dffe4d4e89f4f748a1da01383614863f2dba7e41c0ce485b2b78b31395c960205260409020547fdc1b643a5fbe5cc356c33f15c2785907cf9ce63d1190f80a635812a8ddccc4b49060ff1615610e285750565b805f525f60205260405f20335f5260205260ff60405f20541615610e285750565b6001600160a01b03165f8181527fa889dffe4d4e89f4f748a1da01383614863f2dba7e41c0ce485b2b78b31395c960205260409020547fdc1b643a5fbe5cc356c33f15c2785907cf9ce63d1190f80a635812a8ddccc4b4919060ff166110a557815f525f60205260405f20815f5260205260405f20600160ff1982541617905533917f2f8788117e7eff1d82e926ec794901d17c78024a50270940304540a733656f0d5f80a4600190565b90815f525f60205260405f209060018060a01b031690815f5260205260ff60405f205416155f146110a557815f525f60205260405f20815f5260205260405f20600160ff1982541617905533917f2f8788117e7eff1d82e926ec794901d17c78024a50270940304540a733656f0d5f80a4600190565b90815f525f60205260405f209060018060a01b031690815f5260205260ff60405f2054165f146110a557815f525f60205260405f20815f5260205260405f2060ff19815416905533917ff6391f5c32d9c69d2a47ea670b442974b53935d1edc7fd64eb21e047a839171b5f80a460019056fea2646970667358221220bc6e81ad7635ce12a4a4ba787528f513f9b12cd18a42ae510f4f04785606d8a964736f6c634300081800332f8788117e7eff1d82e926ec794901d17c78024a50270940304540a733656f0dad3228b676f7d3cd4284a5443f17f1962b36e491b30a40b2405849e597ba5fb5","linkReferences":{}},"methodIdentifiers":{"DEFAULT_ADMIN_ROLE()":"a217fddf","HUMAN_ROLE()":"33d6f662","MANAGER_ROLE()":"ec87621c","TASK_CONTRACT_ROLE()":"7287c4eb","getAgent(address)":"fb3551ff","getAllAgents()":"860e4ac6","getRoleAdmin(bytes32)":"248a9ca3","grantRole(bytes32,address)":"2f2ff15d","grantTaskRole(address)":"074d0416","hasRole(bytes32,address)":"91d14854","isRegistered(address)":"c3c5a547","isSuspended(address)":"232e0e9a","policy()":"0505c8c9","recordDispute(address)":"ba8bfc68","recordTaskParticipation(address)":"57a44c82","recordWin(address)":"739b47ca","register(bytes32,string)":"cf2d31fb","reinstate(address)":"830aebd9","renounceRole(bytes32,address)":"36568abe","reputationScore(address)":"50d061cb","revokeRole(bytes32,address)":"d547741f","supportsInterface(bytes4)":"01ffc9a7","suspend(address)":"286781c7"},"id":39}